:100000000C945D000C9485000C9485000C94AC0657
:100010000C94AC060C94AC060C9485000C948500F2
:100020000C9485000C9485000C9485000C9485003C
:100030000C9485000C9485000C9485000C9485002C
:100040000C9462060C9485000C9430060C940A06FD
:100050000C9485000C9485000C9485000C9485000C
:100060000C94B6060C948500000000080002010004
:100070000003040700000000000000000000000072
:10008000250028002B0000000000240027002A0083
:10009000040404040404040402020202020203032E
:1000A0000303030301020408102040800102040836
:1000B0001020010204081020D50711241FBECFEF25
:1000C000D8E0DEBFCDBF11E0A0E0B1E0E0EDF2E1AD
:1000D00002C005900D92A43AB107D9F723E0A4EA33
:1000E000B1E001C01D92A731B207E1F710E0CDE504
:1000F000D0E004C02197FE010E946009CC35D107F1
:10010000C9F70E941C080C9466090C94000008951D
:100110000895AF92BF92CF92DF92EF92FF920F932A
:100120001F93CF93DF936C017B018B01040F151F8D
:10013000EB015E01AE18BF08C017D10759F06991F5
:10014000D601ED91FC910190F081E02DC601099559
:10015000892B79F7C501DF91CF911F910F91FF9006
:10016000EF90DF90CF90BF90AF900895FC01538D3A
:10017000448D252F30E0842F90E0821B930B541781
:1001800010F0CF96089501970895FC01918D828D0E
:10019000981761F0A28DAE0FBF2FB11D5D968C91A7
:1001A000928D9F5F9F73928F90E008958FEF9FEFE6
:1001B0000895FC01918D828D981731F0828DE80FA2
:1001C000F11D858D90E008958FEF9FEF0895FC015C
:1001D000918D228D892F90E0805C9F4F821B910929
:1001E0008F739927089589E692E00E94E70021E045
:1001F000892B09F420E0822F089580E090E0892B7C
:1002000029F00E94F30081110C9400000895FC0174
:10021000A48DA80FB92FB11DA35ABF4F2C91848D67
:1002200090E001968F739927848FA689B7892C93C4
:10023000A089B1898C91837080648C93938D848D17
:10024000981306C00288F389E02D80818F7D80831A
:100250000895EF92FF920F931F93CF93DF93EC01DA
:1002600081E0888F9B8D8C8D98131AC0E889F9895D
:10027000808185FF15C09FB7F894EE89FF89608360
:10028000E889F98980818370806480839FBF81E0E1
:1002900090E0DF91CF911F910F91FF90EF90089523
:1002A000F62E0B8D10E00F5F1F4F0F731127E02EFE
:1002B0008C8D8E110CC00FB607FCFACFE889F98936
:1002C000808185FFF5CFCE010E940701F1CFEB8D34
:1002D000EC0FFD2FF11DE35AFF4FF0829FB7F8940A
:1002E0000B8FEA89FB8980818062CFCFCF93DF9328
:1002F000EC01888D8823B9F0AA89BB89E889F9893E
:100300008C9185FD03C0808186FD0DC00FB607FC72
:10031000F7CF8C9185FFF2CF808185FFEDCFCE01A5
:100320000E940701E9CFDF91CF91089590E0FC0191
:10033000E859FF4F2491FC01EC55FF4F3491FC012B
:10034000E057FF4FE491EE23C9F0222339F0233028
:1003500001F1A8F4213019F1223029F1F0E0EE0F7B
:10036000FF1FE458FF4FA591B4918FB7F894EC911B
:10037000611126C030953E233C938FBF08952730EE
:10038000A9F02830C9F0243049F7809180008F7D92
:1003900003C0809180008F7780938000DFCF84B589
:1003A0008F7784BDDBCF84B58F7DFBCF8091B0008C
:1003B0008F778093B000D2CF8091B0008F7DF9CF3E
:1003C0003E2BDACF3FB7F8948091EF019091F00186
:1003D000A091F101B091F20126B5A89B05C02F3F75
:1003E00019F00196A11DB11D3FBFBA2FA92F982F5B
:1003F0008827BC01CD01620F711D811D911D42E056
:10040000660F771F881F991F4A95D1F708958F921D
:100410009F92AF92BF92CF92DF92EF92FF924B01E9
:100420005C010E94E2016B017C010E94E2016C19F7
:100430007D098E099F09683E734081059105A8F3E7
:1004400021E0821A9108A108B10888EEC80E83E065
:10045000D81EE11CF11C81149104A104B10429F7F8
:10046000FF90EF90DF90CF90BF90AF909F908F90D4
:1004700008952091C501260F3327331F21323105FE
:10048000ECF420913F02FC0190E080E0243069F020
:1004900082E00895A091C5012191AC014B555E4FBA
:1004A000A40FB52FB11D2C930196861798F3809158
:1004B000C501680F6093C50180E0089581E008954B
:1004C00010923F0281E080933E021092190261E097
:1004D00082E10E94960161E083E10E949601E9EBCE
:1004E000F0E080818E7F808380818D7F808388E4AF
:1004F0008093B80085E48093BC0008951092F801C1
:100500001092F70110924602109268020E94600257
:1005100087E890E09093F4018093F30188E890E0FD
:100520009093F6018093F50181E00895CF93DF93D6
:1005300091E09093A4018823B9F0C091B800D091C4
:10054000BA008091BC008A7B8093BC0060E082E1AD
:100550000E94960160E083E10E9496010E94600281
:10056000D093BA00C093B800DF91CF9108958F92D5
:100570009F92AF92BF92CF92DF92EF92FF920F9332
:100580001F93CF93DF93D0916802D13208F0D7C088
:10059000182FC09167020E94E2016B017C018091DB
:1005A0003F0281116BC082E080933F0210933E02B4
:1005B0008FEF80933D0210923C02D0933B02A7E460
:1005C000B2E0EBE1F2E080E0D81391C010921A02A1
:1005D00080911A02CC0FC82BC0931A028091190285
:1005E000813009F088C0109219020E94E2016B016B
:1005F0007C0180911A028093BB008091410290910E
:100600004202A0914302B0914402892B8A2B8B2B8A
:10061000A1F00E94E201009141021091420220915A
:100620004302309144026C197D098E099F09061717
:1006300017072807390708F442C08091BC0083FDE2
:10064000D8CF85EC8093BC000E94E2016B017C0155
:1006500080913F02823009F450C080913D028F3F6B
:1006600009F46FC080913D02803209F46CC0809122
:100670003D02803309F469C084E026C080914102C4
:1006800090914202A0914302B0914402892B8A2B9F
:100690008B2B09F484CF0E94E2018090410290905C
:1006A0004202A0904302B09044026C197D098E0969
:1006B0009F0986169706A806B90608F070CF8091A4
:1006C00040020E94960285E0109246021092680253
:1006D00010924502DF91CF911F910F91FF90EF9003
:1006E000DF90CF90BF90AF909F908F9008959D9195
:1006F00091938F5F69CF85EEA5CF80914102909154
:100700004202A0914302B0914402892B8A2B8B2B89
:1007100009F49ECF0E94E201009141021091420231
:1007200020914302309144026C197D098E099F0982
:10073000061717072807390708F08ACFC0CF81E0CE
:10074000C3CF80E0C1CF82E0BFCF83E0BDCF0F93A6
:100750001F93CF93DF938B01C2E1D3E0AA81BB81CA
:100760009C8121E0209345029093670210924602FB
:1007700010926802ED91FC9111970190F081E02DAB
:10078000682FCD0109958A819B81DC01ED91FC9157
:100790000190F081E02DD8016C91099581E0DF9105
:1007A000CF911F910F910C94B7020895E091F80139
:1007B0008091F701E81730F4F0E0E750FE4F8081B8
:1007C00090E008958FEF9FEF08959091F801809148
:1007D000F7012FEF3FEF981748F4E92FF0E0E750CB
:1007E000FE4F208130E09F5F9093F801C90108958A
:1007F0008091F7019091F801891B990B0895CF9290
:10080000DF92EF92FF920F931F93CF93DF937C01C0
:10081000CB018A0120914502222389F0EB016B0173
:10082000C40ED51ECC15DD0569F06991D701ED9197
:10083000FC910190F081E02DC7010995F3CF642F61
:100840000E943902C801DF91CF911F910F91FF9053
:10085000EF90DF90CF900895CF93DF931F92CDB7A5
:10086000DEB76983209145022223F9F020916802C6
:10087000203258F021E030E0FC013383228390E005
:1008800080E00F90DF91CF91089580914602E82F8C
:10089000F0E0E95BFD4F998190838F5F8093460282
:1008A0008093680281E090E0ECCF61E0CE01019698
:1008B0000E943902F7CF90E080E00895FC0101909A
:1008C0000020E9F73197AF01481B590BBC0189E6BD
:1008D00092E00C9489008F929F92AF92BF920F93F7
:1008E0001F93CF93DF93CDB7DEB7A1970FB6F894E0
:1008F000DEBF0FBECDBF19A2423008F44AE08E0120
:100900000F5D1F4F842E912CB12CA12CA5019401B9
:100910000E943E09E62FB901CA01EA30F4F4E05D15
:10092000D801EE938D01232B242B252B79F790E012
:1009300080E0109719F0CD010E945E04A1960FB6D9
:10094000F894DEBF0FBECDBFDF91CF911F910F9105
:10095000BF90AF909F908F900895E95CE1CFCF93C7
:10096000DF930E945E04EC018AE291E00E945E0443
:100970008C0F9D1FDF91CF9108958F929F92AF9220
:10098000BF92CF92DF92EF92FF920F931F93CF937C
:10099000DF938B01A0911403B0911503909116037E
:1009A00021E0209345029093670210924602109234
:1009B0006802ED91FC9111970190F081E02D682F74
:1009C000CD01099580E00E94B702C82FF12CE12CDF
:1009D0008111DAC0D09116030E94E2016B017C0103
:1009E00080913F02811163C081E080933F02809338
:1009F0003E029FEF90933D0210923C0210923B0208
:100A000080931A0280911A02DD0FD82BD0931A021C
:100A100080911902813009F091C0109219020E9450
:100A2000E2016B017C0180911A028093BB008091EE
:100A3000410290914202A0914302B0914402892B5D
:100A40008A2B8B2BA1F00E94E201809041029090B2
:100A50004202A0904302B09044026C197D098E09B5
:100A60009F0986169706A806B90608F441C080912A
:100A7000BC0083FDD8CF85EC8093BC000E94E201CE
:100A80006B017C0180913F02813009F459C0809153
:100A90003C02811177C080913C02ABE1B2E0E9EF0A
:100AA000F1E0C81749F19D919193CF5FFACF809102
:100AB000410290914202A0914302B0914402892BDD
:100AC0008A2B8B2B09F48CCF0E94E201809041028B
:100AD00090904202A0904302B09044026C197D09AC
:100AE0008E099F0986169706A806B90608F078CFE2
:100AF000809140020E9496021092F801C093F70183
:100B0000E8017E01E01AF10A809114039091150327
:100B1000DC01ED91FC910084F185E02D0995892B94
:100B200099F18091140390911503DC01ED91FC91F2
:100B30000284F385E02D09958993E3CF85EE9CCF60
:100B40008091410290914202A0914302B0914402EF
:100B5000892B8A2B8B2B09F495CF0E94E201809080
:100B6000410290904202A0904302B09044026C195E
:100B70007D098E099F0986169706A806B90608F012
:100B800081CFB6CF81E089CFC701DF91CF911F918F
:100B90000F91FF90EF90DF90CF90BF90AF909F901C
:100BA0008F90089585ED8093BC00809141029091D3
:100BB0004202A0914302B09144020796A11DB11DCB
:100BC00023E0B695A795979587952A95D1F720911B
:100BD000BC0024FD03C010923F02089540914102E1
:100BE000509142026091430270914402452B462B82
:100BF000472B69F30097A105B10541F025E32A953C
:100C0000F1F700000197A109B109E1CF80914002FD
:100C10000C9496021F920F920FB60F9211242F93ED
:100C20003F934F935F936F937F938F939F93AF9374
:100C3000BF93EF93FF9389E692E00E940701FF9133
:100C4000EF91BF91AF919F918F917F916F915F9144
:100C50004F913F912F910F900FBE0F901F901895BD
:100C60001F920F920FB60F9211242F938F939F9381
:100C7000EF93FF93E0917902F0917A028081E09105
:100C80007F02F091800282FD1BC0908180918202E0
:100C90008F5F8F7320918302821741F0E09182026F
:100CA000F0E0E759FD4F958F80938202FF91EF911D
:100CB0009F918F912F910F900FBE0F901F901895BD
:100CC0008081F4CF1F920F920FB60F9211242F93B1
:100CD0003F938F939F93AF93BF938091EB0190913C
:100CE000EC01A091ED01B091EE013091EA0123E019
:100CF000230F2D3758F50196A11DB11D2093EA0150
:100D00008093EB019093EC01A093ED01B093EE0181
:100D10008091EF019091F001A091F101B091F20169
:100D20000196A11DB11D8093EF019093F001A09356
:100D3000F101B093F201BF91AF919F918F913F91DB
:100D40002F910F900FBE0F901F90189526E8230F3C
:100D50000296A11DB11DD2CF1F920F920FB60F9216
:100D600011240F900FBE0F901F9018951F920F9295
:100D70000FB60F9211242F933F934F935F936F936E
:100D80007F938F939F93AF93BF93EF93FF93809144
:100D9000B900887F803609F44AC0F0F5883209F43A
:100DA000A7C018F5803109F49BC0B8F4882309F472
:100DB000F9C0883009F494C0FF91EF91BF91AF91D1
:100DC0009F918F917F916F915F914F913F912F9163
:100DD0000F900FBE0F901F901895883109F488C0AE
:100DE000803251F780933D0214C0803409F49DC0D5
:100DF00040F48033B9F38833F9F680933D0285ECF3
:100E0000B0C0803509F485C0883509F496C08834AF
:100E100099F60E94D205D0CF883909F48CC038F5F4
:100E2000883729F050F4883611F0803729F683E0AE
:100E300080933F021092E70157C0883809F47BC0C5
:100E4000803919F0803809F0B7CF8091E7018032FE
:100E500008F071C0E091E70181E08E0F8093E70117
:100E60008091BB00F0E0E953FE4F80833DC0803BA2
:100E700039F0E0F4803A09F479C0883A09F09CCF5F
:100E800084E080933F021092C6011092C501E09168
:100E9000F301F091F40109958091C50181110FC012
:100EA00081E08093C5011092A50109C0803C09F43E
:100EB000A6CF883C09F4A3CF883B09F07DCFE09111
:100EC000C60181E08E0F8093C601F0E0EB55FE4F26
:100ED00080818093BB009091C6018091C50129C09B
:100EE00080911A028093BB0085EC8093BC0064CF94
:100EF00090913C0280913B02981758F5E0913C029A
:100F000081E08E0F80933C02F0E0E55EFD4F808132
:100F1000E9CFE0913C0281E08E0F80933C0280910A
:100F2000BB00F0E0E55EFD4F808390913C02809134
:100F30003B029817C8F285E8D8CFE0913C0281E0E7
:100F40008E0F80933C028091BB00F0E0E55EFD4F88
:100F5000808380913E0281115CCF81E080931902F1
:100F600084EA8093BC0010923F0226CF85EC8093E8
:100F7000BC0010923F028091E701803230F4E09192
:100F8000E701F0E0E953FE4F10826091E70170E065
:100F9000E091F501F091F60187EC91E0099510924E
:100FA000E7010ACF10923D0234CFE9E6F2E0138266
:100FB000128288EE93E0A0E0B0E084839583A6835C
:100FC000B78324E031E03183208325EC30E035879E
:100FD000248724EC30E03787268720EC30E0318B03
:100FE000208B21EC30E0338B228B22EC30E0358BF0
:100FF000248B26EC30E0378B268B118E128E138ECD
:10100000148EE6E0F3E01382128284839583A68334
:10101000B78386E191E091838083A2E1B3E088E227
:1010200091E011969C938E931396FC93EE931297F6
:1010300084E614968C930895CF93DF9300D000D06C
:10104000CDB7DEB7789484B5826084BD84B5816005
:1010500084BD85B5826085BD85B5816085BD809183
:101060006E00816080936E001092810080918100FB
:1010700082608093810080918100816080938100F3
:10108000809180008160809380008091B1008460B5
:101090008093B1008091B00081608093B000809116
:1010A0007A00846080937A0080917A0082608093D5
:1010B0007A0080917A00816080937A0080917A0032
:1010C000806880937A001092C100E0917902F091DB
:1010D0007A0282E08083E0917502F09176021082BC
:1010E000E0917702F091780280E180831092810292
:1010F000E0917D02F0917E0286E08083E0917B02A8
:10110000F0917C02808180618083E0917B02F0918C
:101110007C02808188608083E0917B02F0917C0278
:10112000808180688083E0917B02F0917C028081E5
:101130008F7D8083ECEAF0E02491E8E9F0E084918F
:10114000882399F090E0880F991FFC01EA57FF4F20
:10115000A591B491FC01E458FF4F859194918FB70C
:10116000F894EC91E22BEC938FBF1092F80110925F
:10117000F70110924602109268020E94600287E80E
:1011800090E09093F4018093F30188E890E09093CD
:10119000F6018093F5018DE291E00E94AF0487E0B3
:1011A0008A83BE016E5F7F4F85E00E94A7031B828A
:1011B000BE016D5F7F4F84E00E94A7038FEF8C8399
:1011C000BE016C5F7F4F86E00E94A7031982BE01BB
:1011D0006F5F7F4F86E00E94BD04198187E391E035
:1011E0000E945E04612F70E090E080E04AE00E947F
:1011F0006B048AE291E00E945E0480E0E82E80E0C9
:10120000F82E1982BE016F5F7F4F82E00E94BD04FD
:1012100019811736A1F0183651F11123C1F08AE96E
:1012200091E00E945E04612F70E090E080E04AE06F
:101230000E946B048AE291E00E945E0408C061E0B3
:1012400088E00E94960183E491E00E94AF046CE282
:1012500071E080E090E00E940702E114F10489F25D
:101260000E94F300882369F20E940000CACF60E068
:1012700088E00E9496018EE691E0E7CFA1E21A2E67
:10128000AA1BBB1BFD010DC0AA1FBB1FEE1FFF1F2A
:10129000A217B307E407F50720F0A21BB30BE40B7A
:1012A000F50B661F771F881F991F1A9469F76095C1
:1012B0007095809590959B01AC01BD01CF0108957B
:1012C000EE0FFF1F0590F491E02D0994F894FFCFE5
:1012D0000000000029018900B6007601E700C50082
:1012E000D900000000002C04FF035B04D503F803C1
:1012F000E503D603000000007E020D0A0042656788
:10130000696E206F6B210077616B6554696D652094
:101310003D20007265636569766564275475726E59
:10132000206F6E20626C7565206C6564272C636F7E
:101330006D6D616E6420666C61672735270072658C
:10134000636569766564275475726E206F666620E2
:10135000626C7565206C6564272C636F6D6D616EC2
:101360006420666C616727362700434D444944205A
:041370003D2000001C
:00000001FF
